{"contracts/MyERC721MintByID.sol":{"NumberGuessingGame":{"abi":[{"inputs":[],"stateMutability":"nonpayable","type":"constructor"},{"anonymous":false,"inputs":[{"indexed":true,"internalType":"address","name":"player","type":"address"},{"indexed":false,"internalType":"uint256","name":"secretNumber","type":"uint256"}],"name":"NewGameStarted","type":"event"},{"anonymous":false,"inputs":[{"indexed":true,"internalType":"address","name":"player","type":"address"}],"name":"Winner","type":"event"},{"inputs":[{"internalType":"uint256","name":"number","type":"uint256"}],"name":"guess","outputs":[],"stateMutability":"nonpayable","type":"function"},{"inputs":[],"name":"owner","outputs":[{"internalType":"address","name":"","type":"address"}],"stateMutability":"view","type":"function"},{"inputs":[],"name":"secretNumber","outputs":[{"internalType":"uint256","name":"","type":"uint256"}],"stateMutability":"view","type":"function"},{"inputs":[],"name":"startNewGame","outputs":[],"stateMutability":"nonpayable","type":"function"}],"evm":{"bytecode":{"linkReferences":{},"object":"608060405234801561001057600080fd5b50600080546001600160a01b031916331790556040516064906100429042904490602001918252602082015260400190565b6040516020818303038152906040528051906020012060001c6100659190610078565b61007090600161009a565b6001556100c1565b60008261009557634e487b7160e01b600052601260045260246000fd5b500690565b808201808211156100bb57634e487b7160e01b600052601160045260246000fd5b92915050565b6102e0806100d06000396000f3fe608060405234801561001057600080fd5b506004361061004c5760003560e01c8063482d51e0146100515780638da5cb5b1461005b5780639189fec11461008b578063c36604ed1461009e575b600080fd5b6100596100b5565b005b60005461006e906001600160a01b031681565b6040516001600160a01b0390911681526020015b60405180910390f35b610059610099366004610248565b6101a8565b6100a760015481565b604051908152602001610082565b6000546001600160a01b031633146101205760405162461bcd60e51b8152602060048201526024808201527f4f6e6c7920746865206f776e65722063616e2073746172742061206e6577206760448201526330b6b29760e11b60648201526084015b60405180910390fd5b6064424460405160200161013e929190918252602082015260400190565b6040516020818303038152906040528051906020012060001c6101619190610261565b61016c906001610283565b600181905560405190815233907f631e75793be1472f707731dcfd097ddce52e764c4fe77f06bb7b2223c3fc1f479060200160405180910390a2565b600181101580156101ba575060648111155b6102105760405162461bcd60e51b815260206004820152602160248201527f4e756d626572206d757374206265206265747765656e203120616e64203130306044820152601760f91b6064820152608401610117565b60015481036102455760405133907f745c90b656b4aafe296c8ca35aeacfe56cb96c90e1d320e5da643fff1051b6c090600090a25b50565b60006020828403121561025a57600080fd5b5035919050565b60008261027e57634e487b7160e01b600052601260045260246000fd5b500690565b808201808211156102a457634e487b7160e01b600052601160045260246000fd5b9291505056fea264697066735822122019df8c36b77d242a41213ccf0d644082399b83c68977dd5c015d940f30b6260964736f6c63430008110033","opcodes":"PUSH1 0x80 PUSH1 0x40 MSTORE CALLVALUE DUP1 ISZERO PUSH2 0x10 JUMPI PUSH1 0x0 DUP1 REVERT JUMPDEST POP PUSH1 0x0 DUP1 SLOAD PUSH1 0x1 PUSH1 0x1 PUSH1 0xA0 SHL SUB NOT AND CALLER OR SWAP1 SSTORE PUSH1 0x40 MLOAD PUSH1 0x64 SWAP1 PUSH2 0x42 SWAP1 TIMESTAMP SWAP1 DIFFICULTY SWAP1 PUSH1 0x20 ADD SWAP2 DUP3 MSTORE PUSH1 0x20 DUP3 ADD MSTORE PUSH1 0x40 ADD SWAP1 JUMP JUMPDEST PUSH1 0x40 MLOAD PUSH1 0x20 DUP2 DUP4 SUB SUB DUP2 MSTORE SWAP1 PUSH1 0x40 MSTORE DUP1 MLOAD SWAP1 PUSH1 0x20 ADD KECCAK256 PUSH1 0x0 SHR PUSH2 0x65 SWAP2 SWAP1 PUSH2 0x78 JUMP JUMPDEST PUSH2 0x70 SWAP1 PUSH1 0x1 PUSH2 0x9A JUMP JUMPDEST PUSH1 0x1 SSTORE PUSH2 0xC1 JUMP JUMPDEST PUSH1 0x0 DUP3 PUSH2 0x95 JUMPI PUSH4 0x4E487B71 PUSH1 0xE0 SHL PUSH1 0x0 MSTORE PUSH1 0x12 PUSH1 0x4 MSTORE PUSH1 0x24 PUSH1 0x0 REVERT JUMPDEST POP MOD SWAP1 JUMP JUMPDEST DUP1 DUP3 ADD DUP1 DUP3 GT ISZERO PUSH2 0xBB JUMPI PUSH4 0x4E487B71 PUSH1 0xE0 SHL PUSH1 0x0 MSTORE PUSH1 0x11 PUSH1 0x4 MSTORE PUSH1 0x24 PUSH1 0x0 REVERT JUMPDEST SWAP3 SWAP2 POP POP JUMP JUMPDEST PUSH2 0x2E0 DUP1 PUSH2 0xD0 PUSH1 0x0 CODECOPY PUSH1 0x0 RETURN INVALID PUSH1 0x80 PUSH1 0x40 MSTORE CALLVALUE DUP1 ISZERO PUSH2 0x10 JUMPI PUSH1 0x0 DUP1 REVERT JUMPDEST POP PUSH1 0x4 CALLDATASIZE LT PUSH2 0x4C JUMPI PUSH1 0x0 CALLDATALOAD PUSH1 0xE0 SHR DUP1 PUSH4 0x482D51E0 EQ PUSH2 0x51 JUMPI DUP1 PUSH4 0x8DA5CB5B EQ PUSH2 0x5B JUMPI DUP1 PUSH4 0x9189FEC1 EQ PUSH2 0x8B JUMPI DUP1 PUSH4 0xC36604ED EQ PUSH2 0x9E JUMPI JUMPDEST PUSH1 0x0 DUP1 REVERT JUMPDEST PUSH2 0x59 PUSH2 0xB5 JUMP JUMPDEST STOP JUMPDEST PUSH1 0x0 SLOAD PUSH2 0x6E SWAP1 PUSH1 0x1 PUSH1 0x1 PUSH1 0xA0 SHL SUB AND DUP2 JUMP JUMPDEST PUSH1 0x40 MLOAD PUSH1 0x1 PUSH1 0x1 PUSH1 0xA0 SHL SUB SWAP1 SWAP2 AND DUP2 MSTORE PUSH1 0x20 ADD JUMPDEST PUSH1 0x40 MLOAD DUP1 SWAP2 SUB SWAP1 RETURN JUMPDEST PUSH2 0x59 PUSH2 0x99 CALLDATASIZE PUSH1 0x4 PUSH2 0x248 JUMP JUMPDEST PUSH2 0x1A8 JUMP JUMPDEST PUSH2 0xA7 PUSH1 0x1 SLOAD DUP2 JUMP JUMPDEST PUSH1 0x40 MLOAD SWAP1 DUP2 MSTORE PUSH1 0x20 ADD PUSH2 0x82 JUMP JUMPDEST PUSH1 0x0 SLOAD PUSH1 0x1 PUSH1 0x1 PUSH1 0xA0 SHL SUB AND CALLER EQ PUSH2 0x120 JUMPI PUSH1 0x40 MLOAD PUSH3 0x461BCD PUSH1 0xE5 SHL DUP2 MSTORE PUSH1 0x20 PUSH1 0x4 DUP3 ADD MSTORE PUSH1 0x24 DUP1 DUP3 ADD MSTORE PUSH32 0x4F6E6C7920746865206F776E65722063616E2073746172742061206E65772067 PUSH1 0x44 DUP3 ADD MSTORE PUSH4 0x30B6B297 PUSH1 0xE1 SHL PUSH1 0x64 DUP3 ADD MSTORE PUSH1 0x84 ADD JUMPDEST PUSH1 0x40 MLOAD DUP1 SWAP2 SUB SWAP1 REVERT JUMPDEST PUSH1 0x64 TIMESTAMP DIFFICULTY PUSH1 0x40 MLOAD PUSH1 0x20 ADD PUSH2 0x13E SWAP3 SWAP2 SWAP1 SWAP2 DUP3 MSTORE PUSH1 0x20 DUP3 ADD MSTORE PUSH1 0x40 ADD SWAP1 JUMP JUMPDEST PUSH1 0x40 MLOAD PUSH1 0x20 DUP2 DUP4 SUB SUB DUP2 MSTORE SWAP1 PUSH1 0x40 MSTORE DUP1 MLOAD SWAP1 PUSH1 0x20 ADD KECCAK256 PUSH1 0x0 SHR PUSH2 0x161 SWAP2 SWAP1 PUSH2 0x261 JUMP JUMPDEST PUSH2 0x16C SWAP1 PUSH1 0x1 PUSH2 0x283 JUMP JUMPDEST PUSH1 0x1 DUP2 SWAP1 SSTORE PUSH1 0x40 MLOAD SWAP1 DUP2 MSTORE CALLER SWAP1 PUSH32 0x631E75793BE1472F707731DCFD097DDCE52E764C4FE77F06BB7B2223C3FC1F47 SWAP1 PUSH1 0x20 ADD PUSH1 0x40 MLOAD DUP1 SWAP2 SUB SWAP1 LOG2 JUMP JUMPDEST PUSH1 0x1 DUP2 LT ISZERO DUP1 ISZERO PUSH2 0x1BA JUMPI POP PUSH1 0x64 DUP2 GT ISZERO JUMPDEST PUSH2 0x210 JUMPI PUSH1 0x40 MLOAD PUSH3 0x461BCD PUSH1 0xE5 SHL DUP2 MSTORE PUSH1 0x20 PUSH1 0x4 DUP3 ADD MSTORE PUSH1 0x21 PUSH1 0x24 DUP3 ADD MSTORE PUSH32 0x4E756D626572206D757374206265206265747765656E203120616E6420313030 PUSH1 0x44 DUP3 ADD MSTORE PUSH1 0x17 PUSH1 0xF9 SHL PUSH1 0x64 DUP3 ADD MSTORE PUSH1 0x84 ADD PUSH2 0x117 JUMP JUMPDEST PUSH1 0x1 SLOAD DUP2 SUB PUSH2 0x245 JUMPI PUSH1 0x40 MLOAD CALLER SWAP1 PUSH32 0x745C90B656B4AAFE296C8CA35AEACFE56CB96C90E1D320E5DA643FFF1051B6C0 SWAP1 PUSH1 0x0 SWAP1 LOG2 JUMPDEST POP JUMP JUMPDEST PUSH1 0x0 PUSH1 0x20 DUP3 DUP5 SUB SLT ISZERO PUSH2 0x25A JUMPI PUSH1 0x0 DUP1 REVERT JUMPDEST POP CALLDATALOAD SWAP2 SWAP1 POP JUMP JUMPDEST PUSH1 0x0 DUP3 PUSH2 0x27E JUMPI PUSH4 0x4E487B71 PUSH1 0xE0 SHL PUSH1 0x0 MSTORE PUSH1 0x12 PUSH1 0x4 MSTORE PUSH1 0x24 PUSH1 0x0 REVERT JUMPDEST POP MOD SWAP1 JUMP JUMPDEST DUP1 DUP3 ADD DUP1 DUP3 GT ISZERO PUSH2 0x2A4 JUMPI PUSH4 0x4E487B71 PUSH1 0xE0 SHL PUSH1 0x0 MSTORE PUSH1 0x11 PUSH1 0x4 MSTORE PUSH1 0x24 PUSH1 0x0 REVERT JUMPDEST SWAP3 SWAP2 POP POP JUMP INVALID LOG2 PUSH5 0x6970667358 0x22 SLT KECCAK256 NOT 0xDF DUP13 CALLDATASIZE 0xB7 PUSH30 0x242A41213CCF0D644082399B83C68977DD5C015D940F30B6260964736F6C PUSH4 0x43000811 STOP CALLER "},"methodIdentifiers":{"guess(uint256)":"9189fec1","owner()":"8da5cb5b","secretNumber()":"c36604ed","startNewGame()":"482d51e0"}}}}}